:100ACF004C53706565643A2020202020200052533B
:0C0ADF00706565643A2020202020200073
:090A0B00015000044442A0000067
:080419008F338E328D318C30DF
:10042100E4FFFE7D207C41AB33AA32A931A8301212
:1004310001061202D48E388F39E4FFFE7D207C4103
:10044100AB37AA36A935A8341201061202D48E3A66
:100451008F3B7BFF7A0A79CF7D017F01120A3FC36F
:10046100E5386480948050167B2D7D087F01120B46
:1004710091C3E49539F539E49538F53880097B2B3A
:100481007D087F01120B91AE38AF397C007D0A12D5
:1004910003D5AA06AB077540027D097F011209CA7F
:1004A1007B2E7D0B7F01120B91AE38AF397C007D25
:1004B1000A1203D5AA04AB057540017D0C7F011218
:1004C10009CA7BFF7A0A79DD7D017F02120A3FC3E7
:1004D100E53A6480948050167B2D7D087F02120BD3
:1004E10091C3E4953BF53BE4953AF53A80097B2BC2
:1004F1007D087F02120B91AE3AAF3B7C007D0A1260
:1005010003D5AA06AB077540027D097F021209CA0D
:100511007B2E7D0B7F02120B91AE3AAF3B7C007DAF
:100521000A1203D5AA04AB057540017D0C7F0202B6
:0205310009CAF5
:10091700120AEB120BA8120BA475370A7536D77596
:1009270035A375343CE4F53BF53AF539753840FFA6
:10093700FE7D707C42120A8C120B5AC2AFC28CE544
:10094700B060FC7F147E00120B45E5B060F1120B1E
:1009570030855837855736855635855534AF54AE6B
:0A09670053AD52AC5112041980E7A1
:03000B0002076584
:10076500C0E0C0F0C083C082C0D075D000C000C05A
:1007750001C002C003C004C005C006C007758AA435
:10078500758CFF0550E55075F0508485F0501208C2
:100795008E8F4F8E4E8D4D8C4C1206028F4B8E4A8E
:1007A5008D498C48AB47AA46A945A844120015C0F7
:1007B50004C005C006C007AB4BAA4AA949A848AF63
:1007C50047AE46AD45AC441200118F2F8E2E8D2DB0
:1007D5008C2CD007D006D005D0041206C4AF501219
:1007E5000533D007D006D005D004D003D002D00100
:0D07F500D000D0D0D082D083D0F0D0E03240
:100AEB0075985043878053890F438920758BFA750E
:070AFB008DFAC2ABD28E227E
:080003008F993099FDC299228A
:100A67008B608A618962AB60AA61A96212035560D3
:100A7700130562E5627002056114F9120355FF124E
:050A8700000380E222E3
:10097100E4F55FAB07AA06EF4E70057F3002000376
:10098100D3EB9400EA9400402A7C007D0AAF03AEC9
:1009910002120380ED2430FFAE5F055F74592EF81B
:1009A100A6077C007D0AAF03AE02120380AA06AB44
:1009B1000780CDE55FD39400400E155F7459255F24
:0809C100F8E6FF12000380EBD1
:0109C900220B
:0C0A140004510000000004550000000028
:090B9B00C2A1C2A2C2A3C2A4229D
:030BA800020B9BA2
:1006C4008F2B8E2A8D298C28E4FFFE7DC87C42ABBB
:1006D4002BAA2AA929A82812020C600D400BE4F5C4
:1006E4002BF52A7529C8752842E4FFFE7DC87CC213
:1006F400AB2BAA2AA929A82812020C500BE4F52B2B
:10070400F52A7529C87528C2E4FFFE7DC87C42AB72
:100714002FAA2EA92DA82C12020C600D400BE4F573
:100724002FF52E752DC8752C42E4FFFE7DC87CC2C2
:10073400AB2FAA2EA92DA82C12020C500BE4F52FD6
:10074400F52E752DC8752CC2852B54852A53852901
:1007540052852851852F58852E57852D56852C5521
:010764002272
:100533008F28E4FFFEFDFCAB54AA53A952A8511225
:10054300020C601D401BAC28E41202A0AB54AA535A
:10055300A952A85112020C603C403AD2A1C2A28017
:1005630038AF54AE53AD52AC51120285C004C0052E
:10057300C006C007AC28E41202A0A804A905AA0675
:10058300AB07D007D006D005D00412020C5006C228
:10059300A1D2A28004C2A1C2A2E4FFFEFDFCAB581B
:1005A300AA57A956A85512020C601C401AAC28E49D
:1005B3001202A0AB58AA57A956A85512020C603ACA
:1005C3004038D2A3C2A422AF58AE57AD56AC551291
:1005D3000285C004C005C006C007AC28E41202A00F
:1005E300A804A905AA06AB07D007D006D005D004F6
:0F05F30012020C5005C2A3D2A422C2A3C2A4229A
:100B30005389F0438901758AA4758CFFC28DD28CCC
:050B4000D2A9D2AF2292
:100A2000041000000000040C000000000408000096
:0E0A3000000004180000000004140000000084
:100A8C008F138E128D118C1085370F85360E853590
:100A9C000D85340C853B0B853A0A85390985380858
:030AAC00020B6ECC
:100B6E00E4F51BF51AF519F518F517F516F515F543
:020B7E0014223F
:100602008F2B8E2A8D298C28AB13AA12A911A81020
:100612001201068F278E268D258C24AF1BAE1AADB4
:1006220019AC18AB0FAA0EA90DA80C1201068F2344
:100632008E228D218C20AB17AA16A915A814AF2BD8
:10064200AE2AAD29AC28120011AB0BAA0AA909A83F
:10065200081201068F1F8E1E8D1D8C1CE4FFFE7D6D
:10066200207C41AB23AA22A921A82012020C600DF2
:10067200400BE4F523F522752120752041852B17C7
:10068200852A16852915852814AF1BAE1AAD19AC1B
:1006920018AB2BAA2AA929A8281200158F1B8E1A7B
:1006A2008D198C18AF23AE22AD21AC20AB27AA2620
:1006B200A925A824120015AB1FAA1EA91DA81C0259
:0206C200001521
:040BA40043800E225A
:10088E00A281E433F9A285E433FBA286E433FAE4D1
:10089E00F54FF54EF54DF54CE97008BB0105EA70C4
:1008AE00028055B90112BB010FEA700CF54FF54EDF
:1008BE00754D80754CBF8048B90112EB700FEA7010
:1008CE000CF54FF54E754D20754CC08033E9701206
:1008DE00BB010FBA010CF54FF54E754D80754C3FAF
:1008EE00801EE97012EB700FBA010CF54FF54E75C4
:1008FE004D20754C408009E4F54FF54EF54DF54C05
:08090E00AF4FAE4EAD4DAC4CF5
:0109160022BE
:100B4500EF1FAC0670011E4C600A7D027CC7DCFEFF
:040B5500DDFC80EC57
:010B59002279
:100B0200C284C283C28200008FA000000000D28291
:070B120000000000C2822276
:100B5A007F38120B027F0C120B027F06120B027FE8
:040B6A0001020B0277
:100B1900D284C283C28200008FA000000000D2826A
:070B290000000000C282225F
:100B8000EDBF0105247FFE800324BFFEAF06020BEC
:010B90000262
:100A3F008B3C8A3D893E120B80AB3CAA3DA93E12EE
:100A4F0003556013053EE53E7002053D14F9120390
:080A5F0055FF120B1980E22281
:0A0B9100AC03120B80AF04020B1935
:080AAF008E428F43AB05AA043F
:100AB7007F017E00EB1BAC0270011A4C6009AC424F
:070AC700AD4312036E80ED48
:010ACE002205
:0409CA008A3E8B3F97
:1009CE00120B80854041E541D39400402FE5412430
:1009DE00FFFDE434FFFC7F0A7E00120AAFAC3EAD91
:1009EE003FCFCDCFCECCCE1203807C007D0A12033A
:0C09FE0080ED2430FF120B19154180CA57
:010A0A0022C9
:10000E00020340E86480F8E933E83360110460F0DD
:10001E00ED33EC337009E8FCE9FDEAFEEBFF220458
:10002E0060DED3EB9FEA9EE99DE8C2E78CF0C2F753
:10003E0095F0400CE8CCF8E9CDF9EACEFAEBCFFB1F
:10004E0012030B85D0F05804700320D5B3E804706A
:10005E00075002B2D502034A92D5EC0460F7E4CC05
:10006E00C0E0C398F8603B94186008400DD0E0FBE8
:10007E00020322E4FBFAC9FC8028E830E406E4C956
:10008E00FBE4CAFCE830E305E4C9CACBFCE854073C
:10009E006010F8C3E913F9EA13FAEB13FBEC13FC47
:1000AE00D8F130F52FC3E49CFCEF9BFFEE9AFEEDEA
:1000BE0099FDD0E0FBEF4E4D4C701222DB03020394
:1000CE0047EC2CFCEF33FFEE33FEED33FDED30E766
:1000DE00EB020322EF2BFFEE3AFEED39FDD0E0FBF3
:1000EE0050130BBB000302034AED13FDEE13FEEF9C
:0800FE0013FFEC13FC020322C6
:10010600EC4D6011E8497017ED33EC3304600DE4F3
:10011600FCFFFEFD22E933E8330470F802034012C7
:10012600030B58046009E4CC2481500628500902C8
:10013600034A284003020347C0E0EB4A7044B980F3
:1001460006D0E0FB020336EF4E701CBD8008EBFFC5
:10015600EAFEE9FD80EBE98DF0A4FEE5F00201EF91
:10016600E9CDF9EAFEEBFFEF89F0A4FCE5F0CE89D4
:10017600F0A42EFFE435F0CD89F0A42DFEE435F091
:100186008067EF4E7005BD80D780C3EF8BF0A4ACBF
:10019600F0EE8BF0A42CFCE435F0F8EF8AF0A42CFA
:1001A600E5F038FCE433CB8DF0A42CFCE5F03BF80D
:1001B600EE8AF0A42CFCE5F038F8E433CF89F0A4FD
:1001C6002CFCE5F038CF3400CE89F0A42FFFE5F003
:1001D6003EFEE433C98DF0A42EFEE5F039CD8AF05B
:1001E600A42FFFE5F03EFEE43DFD33D0E0FB5007D3
:1001F6000BBB000F02034AEC2CFCEF33FFEE33FE81
:06020600ED33FD020322AE
:10020C0074F8CC6480CCC86480C8F58204604FC399
:10021C00EB9FF5F0EA9E42F0E99D42F0E89C45F038
:10022C00603C501DE5825FFFE582D313CB5BCBF4C2
:10023C002B5582FB50280ABA002409B900200880EB
:10024C001DE5825BFBE582D313CF5FCFF4C3132F85
:10025C005582FF50090EBE00050DBD00010CC3EB0D
:10026C009FF5F0EA9E42F0E99D42F0E89C45F06073
:09027C0007CC4820E701B3EC2295
:10028500ED33EC33600A047003BD8004ECB2E7FC87
:010295002246
:1002960075F020800E75F010800575F0087D007EE3
:1002A600007F003392D530D50312040BEC33401097
:1002B600EF33FFEE33FEED33FDEC33FCD5F0ED22EC
:0E02C600E5F0247EA2D513CC92E7CDCEFF2228
:1002D400EDD2E7CD33EC3392D524814006E4FFFE22
:1002E400FDFC22FCE4CFCECDCC24E0501174FF8081
:1002F400EDC3CC13CCCD13CDCE13CECF13CF04701E
:07030400F030D5DE02040B0E
:10030B00E9D2E7C933E833F892D5EDD2E7CD33EC38
:07031B0033FC5002B2D522B1
:10032200EC30E7100FBF000C0EBE00080DBD00043C
:100332000BEB6014A2D5EB13FCED92E7FD2274FFE8
:10034200FCFDFEFF22E480F8A2D574FF13FC7D8041
:03035200E480EF55
:03000000020802F1
:0C080200787FE4F6D8FD75816202084999
:10035500BB010689828A83E0225002E722BBFE02A6
:09036500E32289828A83E49322D9
:10036E00EF8DF0A4A8F0CF8CF0A428CE8DF0A42EA3
:02037E00FE225D
:10038000BC000BBE0029EF8DF084FFADF022E4CC61
:10039000F875F008EF2FFFEE33FEEC33FCEE9DEC2A
:1003A000984005FCEE9DFE0FD5F0E9E4CEFD22ED70
:1003B000F8F5F0EE8420D21CFEADF075F008EF2FBA
:1003C000FFED33FD4007985006D5F0F222C398FDAB
:0503D0000FD5F0EA2248
:1003D500C2D5EC30E709B2D5E4C39DFDE49CFCEE43
:1003E50030E715B2D5E4C39FFFE49EFE120380C338
:1003F500E49DFDE49CFC800312038030D507C3E433
:060405009FFFE49EFE22B1
:0E040B00C3E49FFFE49EFEE49DFDE49CFC2202
:10080E00020917E493A3F8E493A34003F68001F2E0
:10081E0008DFF48029E493A3F85407240CC8C333EB
:10082E00C4540F4420C8834004F456800146F6DFBA
:10083E00E4800B0102040810204080900A0BE47E35
:10084E00019360BCA3FF543F30E509541FFEE493AF
:10085E00A360010ECF54C025E060A840B8E493A376
:10086E00FAE493A3F8E493A3C8C582C8CAC583CAA1
:10087E00F0A3C8C582C8CAC583CADFE9DEE780BE59
:010A3E0000B7
:00000001FF
