:1008DB00426C7565746F6F746820436F6E74726FC2
:1008EB006C204361722052656164790D0A00436F7D
:1008FB006D6D616E64733A0D0A00533A2053746147
:10090B007274204D6F746F720D0A00503A2053743D
:10091B006F70204D6F746F7220284B65657020537C
:10092B00706565642053657474696E67290D0A00E0
:10093B00313A20536574205370656564203430253B
:10094B000D0A00323A20536574205370656564209C
:10095B003630250D0A00333A2053657420537065E9
:0A096B00656420313030250D0A00CC
:100C2400015500044443480000044942C80000013F
:020C3400480076
:100A0100120D6B120E56120E52753F0A753ED775B6
:100A11003D23753C3CE4F543F5427541A0754040EA
:100A2100FFFE7DA07C42120D48120DF1D2AFC28CA7
:100A31007BFF7A0879DB120D237BFF7A0879F912A3
:100A41000D237BFF7A097905120D237BFF7A097942
:100A510016120D237BFF7A09793B120D237BFF7A56
:100A610009794E120D237BFF7A097961120D23203A
:100A7100B7FD7F147E0012000E20B7F3120DC48063
:010A8100FE76
:03000B0002045E8E
:10045E00C0E0C0F0C083C082C0D075D000C000C064
:10046E0001C002C003C004C005C006C007758AA43F
:10047E00758CFF0555E55575F0648485F055120AA7
:10048E00828F548E538D528C511207788F508E4F0F
:10049E008D4E8C4DE4FFFE7D807C40AB54AA53A95B
:1004AE0052A8511202245016E4FFFE7D807CC0AB90
:1004BE0054AA53A952A8511202246002502DAF50D3
:1004CE00AE4FAD4EAC4DAB4CAA4BA94AA84912004B
:1004DE002DC004C005C006C007AB50AA4FA94EA838
:1004EE004DAF4CAE4BAD4AAC49802BAF50AE4FAD7D
:1004FE004EAC4DAB47AA46A945A84412002DC004E8
:10050E00C005C006C007AB50AA4FA94EA84DAF47B5
:10051E00AE46AD45AC441200298F2F8E2E8D2D8CFC
:10052E002CD007D006D005D00412083AAF551206CB
:10053E00A90548E548C39464404E754800E4FFFEA3
:10054E007D707C41AB59AA58A957A85612011EE4DA
:10055E00FBFAF9783F12002D1202ECC006C007E438
:10056E00FFFE7D707C41AB5DAA5CA95BA85A1201AF
:10057E001EE4FBFAF9783F12002D1202ECAD07AC27
:10058E0006D007D0061205B1D007D006D005D0048C
:10059E00D003D002D001D000D0D0D082D083D0F002
:0305AE00D0E03268
:100B71004D6F746F7220537461727465640D0A0055
:100B81004D6F746F722053746F707065640D0A003D
:100B910053706565643A203530250D0A0053706540
:100BA10065643A203830250D0A0053706565643A52
:100BB10020313030250D0A00556E6B6E6F776E2037
:0A0BC100436F6D6D616E640D0A0054
:100D6B0075985043878053890F438920758BFA758B
:0E0D7B008DFAC2ABD28E43B810D2ACD2AF22EA
:080003008F993099FDC299228A
:100D23008B388A39893AAB38AA39A93A12036D60EC
:100D330013053AE53A7002053914F912036DFF12EF
:050D4300000380E22224
:100BCB00E4F564AB07AA06EF4E70057F3002000315
:100BDB00D3EB9400EA9400402A7C007D0AAF03AE6D
:100BEB00021203C5ED2430FFAE640564745E2EF86B
:100BFB00A6077C007D0AAF03AE021203C5AA06ABA3
:100C0B000780CDE564D39400400E1564745E2564B3
:080C1B00F8E6FF12000380EB74
:010C230022AE
:100B0300EF24BE601514602314603314604324047F
:100B130070527BFF7A0B79718050E4F547F546F507
:100B230045F5447BFF7A0B7981803FE4F547F54631
:100B33007545487544427BFF7A0B7991802CE4F527
:100B430047F5467545A07544427BFF7A0B799E8035
:100B530019E4F547F5467545C87544427BFF7A0BA2
:0E0B630079AB80067BFF7A0B79B9120D232245
:03002300020CCEFE
:100CCE00C0E0C083C082C0D075D000C001C002C0D9
:030CDE0003C00749
:0A0CE100309807C298AF99120B0378
:100CEB00D007D003D002D001D0D0D082D083D0E0B7
:010CFB0032C6
:0C0C3600045600000000045A00000000FA
:090E4900C291C292C293C294222C
:030E5600020E4940
:10083A008F2B8E2A8D298C28E4FFFE7D7F7C43AB8B
:10084A002BAA2AA929A828120224600D400BE4F534
:10085A002BF52A75297F752843E4FFFE7D7F7CC32B
:10086A00AB2BAA2AA929A828120224500BE4F52B9B
:10087A00F52A75297F7528C3E4FFFE7D7F7C43AB8B
:10088A002FAA2EA92DA82C120224600D400BE4F5E4
:10089A002FF52E752D7F752C43E4FFFE7D7F7CC3DB
:1008AA00AB2FAA2EA92DA82C120224500BE4F52F47
:1008BA00F52E752D7F752CC3852B59852A588529C8
:1008CA0057852856852F5D852E5C852D5B852C5A8C
:0108DA0022FB
:1006A9008F28E4FFFEFDFCAB59AA58A957A856129A
:1006B9000224601D401BAC28E41202B8AB59AA58A9
:1006C900A957A856120224603C403AD291C292809E
:1006D90038AF59AE58AD57AC5612029DC004C0058B
:1006E900C006C007AC28E41202B8A804A905AA06E6
:1006F900AB07D007D006D005D0041202245006C299
:1007090091D2928004C291C292E4FFFEFDFCAB5DDE
:10071900AA5CA95BA85A120224601C401AAC28E4FE
:100729001202B8AB5DAA5CA95BA85A120224603A0E
:100739004038D293C29422AF5DAE5CAD5BAC5A1225
:10074900029DC004C005C006C007AC28E41202B867
:10075900A804A905AA06AB07D007D006D005D0047E
:0F0769001202245005C293D29422C293C294224A
:100DC4005389F0438901758AA4758CFFC28DD28C36
:070DD400D2A9D2AFC2B9227F
:100C4200041000000000040C000000000408000072
:0E0C5200000004180000000004140000000060
:100D48008F138E128D118C10853F0F853E0E853DB9
:100D58000D853C0C85430B85420A85410985400871
:030D6800020E0573
:100E0500E4F51BF51AF519F518F517F516F515F5A9
:020E15001422A5
:100778008F2B8E2A8D298C28AB13AA12A911A810A9
:1007880012011E8F278E268D258C24AF1BAE1AAD25
:1007980019AC18AB0FAA0EA90DA80C12011E8F23B5
:1007A8008E228D218C20AB17AA16A915A814AF2B61
:1007B800AE2AAD29AC28120029AB0BAA0AA909A8B0
:1007C8000812011E8F1F8E1E8D1D8C1CE4FFFE7DDE
:1007D800207C41AB23AA22A921A820120224600D63
:1007E800400BE4F523F522752120752041852B1750
:1007F800852A16852915852814AF1BAE1AAD19ACA4
:1008080018AB2BAA2AA929A82812002D8F1B8E1AEB
:100818008D198C18AF23AE22AD21AC20AB27AA26A8
:10082800A925A82412002DAB1FAA1EA91DA81C02C9
:02083800002D91
:040E520043800E22A9
:100A8200A295E433F9A296E433FBA297E433FAE4A5
:100A9200F554F553F552F551E97008BB0105EA70BA
:100AA20002804DB9010EBB010BEA7008F554F553F3
:100AB200F5528010B90112EB700FEA700CF554F583
:100AC200537552807551C0802FE9700EBB010BBA6D
:100AD2000108F554F553F5528010E97012EB700FCE
:100AE200BA010CF554F5537552807551408009E4F2
:100AF200F554F553F552F551AF54AE53AD52AC51D6
:010B020022D0
:10000E00EF1FAC0670011E4C600A7D027CC7DCFE41
:04001E00DDFC80EC99
:0100220022BB
:0B0E34004C3A00636D2F7300523A002F
:060E1700C2838FA0D2820D
:080E1D007F027EEFDEFEDFFC28
:010E250022AA
:0A0E3F00C284120E17C282020E1DBB
:100D8900CFCDCFCECCCE1203C57C007D0A1203C5D0
:040D9900ED2430FF16
:0A0D9D00D284120E17C282020E1D4E
:100DDB00AE07BE0104ED148006BE0209ED243F44AC
:060DEB0080FF120E3F2202
:100DF1007F38120E3F7F0C120E3F7F06120E3F7F8F
:040E010001020E3F9D
:040E26007D037F01C8
:0A0E2A00AC03120DDBAF04020D9DB6
:040CFC007BFF7F01FA
:060D00008B2C8A2D892EC8
:100D0600120DDBE4FDAB2CAA2DA92E8D8275830076
:0C0D1600120386FF6006120D9D0D80E99F
:010D220022AE
:0C0C9B00EA24FFFDE434FFFC7F0A7E0029
:080CA7008E318F328C338D3445
:100CAF007F017E00E4FBEBC39534E5336480F87479
:0E0CBF008098500AAC31AD321203B30B80E8BE
:010CCD002204
:040DA7008A2E8B2FD6
:100DAB00120DDBAA30EAD39400400D120C9BAC2E33
:080DBB00AD2F120D891A80ED25
:010DC300220D
:100C6100120DDBC3EA64809480400B7F2B120D9D33
:100C71008A6A8B6B800E7F2D120D9DC3E49BF56BF1
:100C8100E49AF56AAA69EAD39400400D120C9BAC70
:090C91006AAD6B120D891A80EDA9
:010C9A002237
:0805B1008E288F298C2A8D2B66
:1005B9007A0E79347D01120CFCC3E528648094809D
:1005C90050127B2D120E26C3E49529F529E49528AE
:1005D900F52880057B2B120E26AE28AF297C007DDD
:1005E9006412041AAB07AA06AE28AF297C007D6401
:1005F90012041A8D828C837530027D047F01120DDD
:10060900A77B2E7D067F01120E2AAB82AA83753045
:10061900020D7F01120DA77A0E79377D09120CFCA4
:100629007BFF7A0E793C7D017F02120D00C3E52A1A
:100639006480948050167B2D7D037F02120E2AC39D
:10064900E4952BF52BE4952AF52A80097B2B7D036C
:100659007F02120E2AAE2AAF2B7C007D6412041A87
:10066900AB07AA06AE2AAF2B7C007D6412041A8D53
:10067900828C837530027D047F02120DA77B2E7D4B
:10068900067F02120E2AAB82AA837530020D7F0201
:10069900120DA77BFF7A0E79377D097F02020D00C3
:10002600020358E86480F8E933E83360110460F0AD
:10003600ED33EC337009E8FCE9FDEAFEEBFF220440
:1000460060DED3EB9FEA9EE99DE8C2E78CF0C2F73B
:1000560095F0400CE8CCF8E9CDF9EACEFAEBCFFB07
:1000660012032385D0F05804700320D5B3E804703A
:10007600075002B2D502036292D5EC0460F7E4CCD5
:10008600C0E0C398F8603B94186008400DD0E0FBD0
:1000960002033AE4FBFAC9FC8028E830E406E4C926
:1000A600FBE4CAFCE830E305E4C9CACBFCE8540724
:1000B6006010F8C3E913F9EA13FAEB13FBEC13FC2F
:1000C600D8F130F52FC3E49CFCEF9BFFEE9AFEEDD2
:1000D60099FDD0E0FBEF4E4D4C701222DB0302037C
:1000E6005FEC2CFCEF33FFEE33FEED33FDED30E736
:1000F600EB02033AEF2BFFEE3AFEED39FDD0E0FBC3
:1001060050130BBB0003020362ED13FDEE13FEEF6B
:0801160013FFEC13FC02033A95
:10011E00EC4D6011E8497017ED33EC3304600DE4DB
:10012E00FCFFFEFD22E933E8330470F80203581297
:10013E00032358046009E4CC248150062850090298
:10014E00036228400302035FC0E0EB4A7044B980AB
:10015E0006D0E0FB02034EEF4E701CBD8008EBFF95
:10016E00EAFEE9FD80EBE98DF0A4FEE5F002020760
:10017E00E9CDF9EAFEEBFFEF89F0A4FCE5F0CE89BC
:10018E00F0A42EFFE435F0CD89F0A42DFEE435F079
:10019E008067EF4E7005BD80D780C3EF8BF0A4ACA7
:1001AE00F0EE8BF0A42CFCE435F0F8EF8AF0A42CE2
:1001BE00E5F038FCE433CB8DF0A42CFCE5F03BF8F5
:1001CE00EE8AF0A42CFCE5F038F8E433CF89F0A4E5
:1001DE002CFCE5F038CF3400CE89F0A42FFFE5F0EB
:1001EE003EFEE433C98DF0A42EFEE5F039CD8AF043
:1001FE00A42FFFE5F03EFEE43DFD33D0E0FB5007BB
:10020E000BBB000F020362EC2CFCEF33FFEE33FE50
:06021E00ED33FD02033A7E
:1002240074F8CC6480CCC86480C8F58204604FC381
:10023400EB9FF5F0EA9E42F0E99D42F0E89C45F020
:10024400603C501DE5825FFFE582D313CB5BCBF4AA
:100254002B5582FB50280ABA002409B900200880D3
:100264001DE5825BFBE582D313CF5FCFF4C3132F6D
:100274005582FF50090EBE00050DBD00010CC3EBF5
:100284009FF5F0EA9E42F0E99D42F0E89C45F0605B
:0902940007CC4820E701B3EC227D
:10029D00ED33EC33600A047003BD8004ECB2E7FC6F
:0102AD00222E
:1002AE0075F020800E75F010800575F0087D007ECB
:1002BE00007F003392D530D503120450EC3340103A
:1002CE00EF33FFEE33FEED33FDEC33FCD5F0ED22D4
:0E02DE00E5F0247EA2D513CC92E7CDCEFF2210
:1002EC00EDD2E7CD33EC3392D524814006E4FFFE0A
:1002FC00FDFC22FCE4CFCECDCC24E0501174FF8069
:10030C00EDC3CC13CCCD13CDCE13CECF13CF047005
:07031C00F030D5DE020450B1
:10032300E9D2E7C933E833F892D5EDD2E7CD33EC20
:0703330033FC5002B2D52299
:10033A00EC30E7100FBF000C0EBE00080DBD000424
:10034A000BEB6014A2D5EB13FCED92E7FD2274FFD0
:10035A00FCFDFEFF22E480F8A2D574FF13FC7D8029
:03036A00E480EF3D
:030000000209757D
:0C097500787FE4F6D8FD75816B0209BCA8
:10036D00BB010689828A83E0225002E722BBFE028E
:09037D00E32289828A83E49322C1
:10038600BB010CE58229F582E5833AF583E022502C
:1003960006E92582F8E622BBFE06E92582F8E22276
:0D03A600E58229F582E5833AF583E4932290
:1003B300EF8DF0A4A8F0CF8CF0A428CE8DF0A42E5E
:0203C300FE2218
:1003C500BC000BBE0029EF8DF084FFADF022E4CC1C
:1003D500F875F008EF2FFFEE33FEEC33FCEE9DECE5
:1003E500984005FCEE9DFE0FD5F0E9E4CEFD22ED2B
:1003F500F8F5F0EE8420D21CFEADF075F008EF2F75
:10040500FFED33FD4007985006D5F0F222C398FD65
:050415000FD5F0EA2202
:10041A00C2D5EC30E709B2D5E4C39DFDE49CFCEEFD
:10042A0030E715B2D5E4C39FFFE49EFE1203C5C3AD
:10043A00E49DFDE49CFC80031203C530D507C3E4A8
:06044A009FFFE49EFE226C
:0E045000C3E49FFFE49EFEE49DFDE49CFC22BD
:10098100020A01E493A3F8E493A34003F68001F281
:1009910008DFF48029E493A3F85407240CC8C33377
:1009A100C4540F4420C8834004F456800146F6DF46
:1009B100E4800B0102040810204080900C24E47EA6
:1009C100019360BCA3FF543F30E509541FFEE4933B
:1009D100A360010ECF54C025E060A840B8E493A302
:1009E100FAE493A3F8E493A3C8C582C8CAC583CA2D
:1009F100F0A3C8C582C8CAC583CADFE9DEE780BEE5
:010C60000093
:00000001FF
